:020000040800F2
:10000000D8060020A1010008AB570008D10E000857
:10001000C9560008570900089B5E00080000000050
:10002000000000000000000000000000A1580008CF
:100030005B0900080000000031580008955A0008CC
:10004000BB010008BB010008BB010008BB010008A0
:10005000BB010008BB010008BB010008BB01000890
:10006000BB010008BB010008BB010008BB01000880
:10007000BB010008BB010008BB010008BB01000870
:10008000BB010008BB010008BB010008BB01000860
:10009000BB010008BB010008BB010008BB01000850
:1000A000BB010008BB010008BB010008BB01000840
:1000B000BB010008BB010008FD5B0008BB01000894
:1000C000BB010008BB010008BB010008BB01000820
:1000D000BB010008B55D0008BB010008BB010008BA
:1000E000BB010008BB010008BB010008BB01000800
:1000F000BB010008BB010008BB010008BB010008F0
:10010000BB010008BB010008BB010008BB010008DF
:10011000BB010008BB010008BB010008BB010008CF
:10012000BB010008BB010008BB010008BB010008BF
:10013000BB010008BB010008BB010008BB010008AF
:10014000BB010008BB010008BB010008BB0100089F
:10015000BB010008BB010008BB010008BB0100088F
:10016000BB010008BB010008BB010008BB0100087F
:10017000BB010008BB010008BB010008BB0100086F
:10018000BB010008BB010008DFF810D000F034FB11
:100190000048004731810008AFF30080D8060020F6
:1001A0000648804706480047FEE7FEE7FEE7FEE711
:1001B000FEE7FEE7FEE7FEE7FEE7FEE7615B00081D
:1001C000890100082DE9F0410024061B254671F144
:1001D000000605DA01240027D0EB070067EB0101D8
:1001E000161E73F1000605DA0027D2EB070201257F
:1001F00067EB030300F0FDF886460E4617469C4663
:10020000AC4204D00025D0EB050E65EB010624B10D
:100210000020D2EB000760EB030C704631463A46F3
:100220006346BDE8F081D2B201E000F8012B491E1F
:10023000FBD270470022F6E710B513460A46044683
:100240001946FFF7F0FF204610BD30B504460020E8
:10025000034600E05B1C934203D2E05CCD5C401B94
:10026000F8D030BD2DE9FE4F81EA030404F00044CC
:1002700021F0004100944FF0000B23F0004350EABE
:1002800001045ED052EA03045BD0C3F30A54C1F305
:100290000A552C44A4F2F3340194A0FB0254C1F398
:1002A000130141F48011C3F3130343F4801301FBE2
:1002B000024400FB034E840A970A44EA815447EA49
:1002C0008357A4FB076802958D0A05FB07854FEA53
:1002D000932C04FB0C542705029D4FEA065847EA6D
:1002E0001637B5EB08056EEB070C870E920E47EA42
:1002F000811742EA8312A7FB0201B6EB0B0164EB04
:1003000000042B0D43EA0C335E1844EB1C50DA4614
:100310005146E7FB0201C5F313044FEA0B3343EAEE
:1003200014534FEA0432019C43EA0603A4F10C047F
:100330000294009CCDE900B400F0E2F803B0BDE8FF
:10034000F08F00200146F9E70EB540F233410291EB
:100350000021CDE900110A460B4600F0D1F803B0A8
:1003600000BDC1F30A5210B5C1F3130140F2FF33CF
:1003700041F480119A4201DA002010BD40F233436B
:100380009A42A2F2334203DC524200F063F810BDFD
:10039000904010BD00F0004230F000400AD0C10D86
:1003A00001F56071C0F3160042EA0151C20840072E
:1003B0001143704700200146704701F0004330B4FC
:1003C00021F0004150EA010206D00A0DA2F5607248
:1003D000C1F31301002A02DC30BC00207047440F37
:1003E00044EAC104C100E01830BC00EBC25000F088
:1003F00041B82DE9F05F0546002092469B468846AD
:100400000646814640241BE0284641464746224690
:1004100000F020F853465A46C01A914110D31146B5
:100420001846224600F0FAF92D1A67EB01084F46EC
:1004300022460120002100F0F1F917EB00094E419E
:10044000201EA4F10104DFDC484631462A4643461B
:10045000BDE8F09F202A04DB203A21FA02F00021B7
:10046000704721FA02F3D040C2F1200291400843C4
:10047000194670470029A8BF7047401C490008BFB3
:1004800020F00100704710B4B0FA80FC00FA0CF0C4
:1004900050EA010404BF10BC704749B1CCF12004FC
:1004A00021FA04F411FA0CF118BF01212143084389
:1004B000A3EB0C01CB1D4FEA00614FEA102042BFB5
:1004C000002010BC704700EBC35010440029A4BFAB
:1004D00010BC7047401C490008BF20F0010010BC50
:1004E000704710B5141E73F1000408DA401C41F186
:1004F000000192185B411A4301D120F0010010BDA8
:100500002DE9F04D92469B4611B1B1FA81F202E01D
:10051000B0FA80F22032904600F080F904460F468F
:1005200040EA0A0041EA0B0153465A46084313D0F9
:10053000114653EA010019D0C8F140025046FFF7B6
:1005400089FF05460E4650465946424600F066F978
:10055000084305D0012004E020463946BDE8F08D6F
:100560000020054346EAE0762C4337430A986305AA
:10057000E40AA0EB08000022FD0A44EA47540A30CE
:1005800002D500200146E9E7010510196941DDE9BE
:10059000084500196941BDE8F04DA2E72DE9FE4F7D
:1005A000804681EA0300C00F0C46009021F0004114
:1005B00023F00045B8EB0200A94105D24046214690
:1005C00090461C460B46024623F00040104347D09D
:1005D000270DC7F30A00C3F30A510290401A019095
:1005E00040286BDAC3F3130040F4801B0098924656
:1005F00020B10023D2EB030A63EB0B0B01985946A1
:10060000C0F14002504600F009F906460D4650463A
:100610005946019A00F011F910EB080061410024DD
:1006200087EA115284EAE7731A4340D0009A62B312
:10063000019A012A4FEA075215DC001B61EB020107
:100640004FF0004202EA0752CDE90042001C41F59A
:10065000801132462B46FFF753FF03B0BDE8F08F01
:1006600040462146F9E7001B61EB0201001C41F501
:10067000801300185B412018A2F5001747EB030117
:1006800040EAD570B6196D4111E06D084FEA3606A3
:1006900045EAC0754FEA0752001B61EB0201001CDE
:1006A00041F5801149084FEA3000001951413246A6
:1006B0002B4603B0BDE8F04FFFF713BF00980122AF
:1006C00040000023D0EB020263EBE0730098214668
:1006D0004FEAE074B8EB000061EB0401E9E783F056
:1006E00000435BE781F0004158E72DE9F04D81EAD6
:1006F000030404F0004B21F0004514464FF0000ABB
:1007000023F0004150EA050220D054EA01021DD036
:10071000C5F30A570246C5F31303C1F31300C1F32F
:100720000A5640F4801543F48013A7EB0608101B0B
:10073000D64608F2FD3873EB050002D308F1010834
:1007400001E092185B41B8F1000F03DA0020014686
:10075000BDE8F08D00204FF48011064684460EE07F
:10076000171B73EB050705D3121B63EB0503064349
:100770004CEA010C49084FEA300092185B4150EAFC
:100780000107EDD152EA030012D082EA040083EAA5
:100790000501084305D0101BAB4106D201220023FE
:1007A00006E000224FF0004302E06FF00102531018
:1007B0001AEB06004CEB085110EB0A0041EB0B0161
:1007C000BDE8F04DFFF78DBE30B5041E71F1000499
:1007D00004DB4FF00044404264EB0101141E73F14E
:1007E000000405DB1C464FF00043524263EB040358
:1007F0008B4208BF824230BD064C074D06E0E068E0
:1008000040F0010394E8070098471034AC42F6D357
:10081000FFF7BEFC2CCD00084CCD0008202A04DBDD
:10082000203A00FA02F1002070479140C2F1200303
:1008300020FA03F3194390407047202A06DBCB17B8
:10084000203A41FA02F043EAE07306E041FA02F38B
:10085000D040C2F1200291400843194670472DE96B
:10086000F04D00231A461B1A8A4103DB0020014683
:10087000BDE8F08DC1F30A52C1F3130141F48015B4
:100880004FF0000BD10702D100186D41521E002716
:10089000044640F2FF11384601EB620A3E468046AC
:1008A000024600204FF48011FFF7D4FDC2197141B8
:1008B000BB1846EB0100B4EB030C75EB000C04D342
:1008C000E41A65EB000517460E46241908F10100ED
:1008D0006D4180463428E3DDF91946EB0600091B1B
:1008E000A84103D24FF0FF32134601E00022134625
:1008F0001BEB070046EB0A51BDE8F04DFFF7F1BDD9
:1009000070B58C1810F8015B15F0070301D110F8D1
:10091000013B2A1106D110F8012B03E010F8016BFE
:1009200001F8016B5B1EF9D12B0705D40023521E81
:100930000DD401F8013BFAE710F8013BCB1A921CE9
:1009400003E013F8015B01F8015B521EF9D5A142E7
:10095000D8D3002070BD00BFFEE7704770B50446D5
:10096000094800684FF47A71B0FBF1F5284605F0AC
:1009700067F808B100BFFEE70448046000BF034801
:1009800000680028FBD170BD000000201800002086
:1009900070B504460A4800684FF47A71B0FBF1F074
:1009A000B0FBF1F5284605F04BF808B100BFFEE7B3
:1009B0000448046000BF034800680028FBD170BDF4
:1009C000000000201800002051B18200A2F1C042B6
:1009D000126842F001038200A2F1C042136009E0F4
:1009E0008200A2F1C0421268034B1A408300A3F1B7
:1009F000C0431A6070470000FEFF0F00D0E90112EB
:100A00001143C2681143026911434269114382696B
:100A10001143C2691143026A1143426A1143826A57
:100A20001143C26A1143026B114302689200A2F1A2
:100A3000C0421160816808290BD101688900A1F1C9
:100A4000C041096841F0400201688900A1F1C0413C
:100A50000A60416B0968426B526841EA0211426BBD
:100A6000926841EA0221426B928941EA0241426B5B
:100A7000128A41EA0251426B127D41EA0261426BE5
:100A8000926911430268521C9200A2F1C0421160A7
:100A9000C16AB1F5804F1BD1816B0968826B5268C6
:100AA00041EA0211826B926841EA0221826B128A4A
:100AB00041EA0251826B127D41EA0261826B9269C6
:100AC000114302689200A2F1C042C2F8041107E08B
:100AD0006FF0704201688900A1F1C041C1F80421A2
:100AE0007047F0B50A4600210023002400BF3DE016
:100AF000012505FA01F3156805EA03049C4234D187
:100B000005684F000326BE40B543056015794E00C9
:100B1000B5400668354305601579012D02D0157979
:100B2000022D16D185684F000326BE40B54385606F
:100B300055794E00B5408668354385604568012685
:100B40008E40B5434560456896798E40B6B23543D0
:100B50004560C5684F000326BE40B543C560D579E2
:100B60004E00B540C6683543C560491C1029BFD347
:100B7000F0BDF0B5002300244D07ED0E02FA05F399
:100B8000CE1000F1200555F826504E07F70E0F261F
:100B9000BE40B543CF1000F1200646F82750CE10D6
:100BA00000F1200555F8265045EA0304CE1000F167
:100BB000200545F82640F0BD0246002013690B4091
:100BC0000BB1012000E00020704741837047018392
:100BD0007047000000B52DED088B87B0AB48C0789A
:100BE00000287DD0A94840780028FAD0A848A94913
:100BF000A94BAA4ACDE90010A949AA4806F0B4FABF
:100C000020B1012007B0BDEC088B00BDA0480078E2
:100C100010B900209D49C8709E48008800F480707B
:100C200000287DD09D4890ED000AB8EEC00ADFEDA7
:100C30009E0A80EE201A9D4880ED001A974890ED9C
:100C4000010AB8EEC00ADFED980A80EE201A984833
:100C500080ED001A914890ED020AB8EEC00ADFED6F
:100C6000920A80EE201A934880ED001A8B4890ED8E
:100C7000030AB8EEC00ADFED8C0A80EE201A8E4817
:100C800080ED001A8A4890ED000AF8EE000A20EE86
:100C9000200A8948D0ED000A20EE200A8348D0EDD2
:100CA000000AB0EE001A60EE810A824890ED001A48
:100CB00000EE810A10EE101A0846FFF76BFB41ECBC
:100CC0001A0BB0EE4A0AF0EE6A0A05F011F9B0EE1E
:100CD000409AF0EE609A9FED790B53EC102B00E0F8
:100CE000C0E051EC190BFFF7BDFA41EC180BFFF710
:100CF00064FB744908606E4890ED000AF8EE000A43
:100D000020EE200AD0ED000A20EE200A6948D0ED3E
:100D1000000AB0EE001A60EE810A90ED001A00E0C1
:100D2000B2E000EEC10AF7EE000A30EE200A10EE43
:100D3000101A0846FFF72EFB41EC1A0B5D4890EDA8
:100D4000000AF0EE000A20EE200A5B48D0ED000A0F
:100D500020EE200A5548D0ED000AB0EE001A60EEF1
:100D6000810A534890ED001A00EE810A10EE101A25
:100D70000846FFF70FFB41EC1B0BB0EE4A1AF0EEF2
:100D80006A1AB0EE4B0AF0EE6B0A05F0CDFBB0EE3E
:100D9000409AF0EE609A9FED490B53EC102B51EC0A
:100DA000190BFFF75FFA41EC180BFFF706FB4649FA
:100DB00008603E4890ED000A20EE000A3C48D0ED65
:100DC000000A90ED001A00EE810A3A48D0ED000AC0
:100DD00090ED001A00EEC10A3748D0ED000A90ED00
:100DE000001A00EEC10A10EE101A0846FFF7D2FAF8
:100DF00041EC1A0B2E4890ED000A2E48D0ED000A67
:100E000020EE200A2948D0ED000A2B4890ED001A68
:100E100000EE810AF0EE000A20EE200A10EE101A11
:100E20000846FFF7B7FA41EC1B0BB0EE4A1AF0EE9A
:100E30006A1AB0EE4B0AF0EE6B0A05F075FBB0EEE5
:100E4000409AF0EE609A9FED1D0B53EC102B51EC85
:100E5000190BFFF707FA41EC180BFFF7AEFA1B4925
:100E6000086011E00948C07870B101A802AB0A4AD5
:100E700003A9009005A807F0DFFC9DF8040010B955
:100E800000200249C87000BF0020BBE6E00100203E
:100E90005E0000205C0000204C000020F0010020DB
:100EA00056000020500000200000804E300000203E
:100EB00034000020380000203C0000206666666692
:100EC00066A64C404000002048000020440000205E
:100ED00000BFFEE710B50520FFF75AFD4FF4007183
:100EE0000D48FFF772FE4FF480710C48FFF76FFE5C
:100EF0000520FFF74DFD4FF480710848FFF765FEB0
:100F00000520FFF745FD4FF400710348FFF75DFE34
:100F10000520FFF73DFD10BD000802400000024023
:100F200010B50520FFF734FD4FF400710D48FFF7B1
:100F30004EFE4FF480710C48FFF749FE0520FFF785
:100F400027FD4FF480710848FFF73FFE0520FFF7AB
:100F50001FFD4FF400710348FFF737FE0520FFF730
:100F600017FD10BD000802400000024070B50024CB
:100F70001C48006820F440201A49086008460068B0
:100F8000086000251EE00520FFF702FD4FF4807188
:100F90001548FFF71CFE0520FFF7FAFC6006040E5B
:100FA0004FF400710F48FFF707FE08B1601CC4B290
:100FB0000520FFF7EDFC4FF480710B48FFF705FEAD
:100FC000681CC5B2082DDEDB0648006820F440200E
:100FD000044908600846006840F480200860204604
:100FE00070BD0000000802400000024010B54FF440
:100FF00080710C48FFF7EBFD4FF400710A48FFF7D2
:10100000E6FD0520FFF7C4FC4FF400710648FFF72A
:10101000DCFD0520FFF7BCFC4FF480710148FFF7B1
:10102000D4FD10BD000002400008024010B54FF48E
:1010300000710B48FFF7C9FD0520FFF7A9FC4FF42D
:1010400080710848FFF7C3FD0520FFF7A1FC4FF4AE
:1010500000710348FFF7BBFD0520FFF799FC10BDA9
:10106000000802400000024070B50646002423E05C
:101070004FF480712B48FFF7A8FDC4F1070046FA32
:1010800000F000F0010028B14FF400712648FFF78E
:101090009EFD04E04FF400712348FFF796FD052004
:1010A000FFF776FC4FF480711E48FFF790FD052096
:1010B000FFF76EFC601CC4B2082CD9DB1A4800682C
:1010C00020F4402018490860084600680860891527
:1010D0001448FFF77AFD0520FFF75AFC4FF48071A2
:1010E0001048FFF774FD0520FFF752FC4FF4007124
:1010F0000D48FFF761FD08B1012500E000254FF420
:1011000080710848FFF761FD0748006820F440201F
:10111000054908600846006840F4802008602846B9
:1011200070BD000000000240000802401CB5012113
:10113000052004F07FFB01208DF8040000208DF8CD
:1011400006004FF48070009001208DF80700032006
:101150008DF8050069460A48FFF7C3FC4FF400709C
:10116000009069460748FFF7BCFC4FF480710448C3
:10117000FFF72DFD4FF400710248FFF728FD1CBD5D
:10118000000002400008024070B5044600261748DF
:101190000588408845431548808846F60401884202
:1011A00016D112488079012812D100200F49887188
:1011B0002A2048812B2088810021084604F05EF80F
:1011C00001200A4988712B2048812A20888103E068
:1011D0000021084604F052F804F062FA002602E00A
:1011E00003480480761CAE42FAD370BDD0010020C3
:1011F0008000006C00B51648808849F24131884271
:1012000011D01348808846F6040188420BD010485C
:10121000808845F21031884205D00D48808841F61B
:101220006311884203D1292004F02EFA0FE0084808
:10123000808845F21051884204D14FF4245004F0C4
:1012400023FA04E040F27311072004F033FA00BDE2
:10125000D001002010B50446002C66D16C4988717D
:10126000F02008804FF4A07048800846808849F23A
:10127000413188420BD06648808846F60401884296
:1012800005D06348808845F2103188421AD12C205D
:101290005F4908812A2048812B2088810846808860
:1012A00046F60401884205D05948808845F210313D
:1012B000884206D14FF4A070554908804FF4F07071
:1012C0004880A1E05248808845F21051884210D1F0
:1012D0004FF430504E4908814FF4285048814FF464
:1012E0002C5088814FF4F07008804FF4487048808B
:1012F0008AE04748808841F6631188420DD12C204E
:10130000434908812B2048812A2088814FF4F070BE
:1013100008804FF44870488076E022203C490881DC
:1013200020204881212088816EE001203849887181
:101330004FF4A0700880F02048800846808849F269
:101340004131884205D03248808845F210318842C8
:1013500007D12C202E4908812A2048812B20888102
:101360003FE02B48808846F60401884207D12C20B4
:10137000274908812B2048812A20888131E0244890
:10138000808845F21051884210D14FF430502049E6
:1013900008814FF4285048814FF42C5088814FF435
:1013A000487008804FF4F07048801AE01848808830
:1013B00041F6631188420DD12C20154908812A205D
:1013C00048812B2088814FF4487008804FF4F070DA
:1013D000488006E022200E490881212048812020F3
:1013E00088810B48808846F60401884205D0084869
:1013F000808845F21031884206D14FF4F0700449DC
:1014000008804FF4A0704880002003F0C1FD10BD9B
:10141000D001002070B504460D4616465B48808812
:1014200049F24131884205D05848808845F2103150
:10143000884214D15549488904F026F9201204F055
:1014400017F9E0B204F014F95049888904F01CF946
:10145000281204F00DF9E8B204F00AF98CE04B48C8
:10146000808845F21051884220D14849488904F0CB
:101470000BF9201204F0FCF844494989491C88B250
:1014800004F002F9E0B204F0F3F84049888904F06E
:10149000FBF8281204F0ECF83C498989491C88B211
:1014A00004F0F2F8E8B204F0E3F865E03748808829
:1014B00041F66311884228D13448807920B93348F5
:1014C0000088401E001B84B23049488904F0DCF8D3
:1014D000201204F0CDF8E0B204F0CAF8201204F0B3
:1014E000C7F8E0B204F0C4F82849888904F0CCF8C1
:1014F000281204F0BDF8E8B204F0BAF8281204F09B
:10150000B7F8E8B204F0B4F836E02048808846F630
:10151000040188421DD11D488079012804D11B484F
:101520000088401E001B84B21849488904F0ACF8BA
:10153000201204F09DF8E0B204F09AF8134988896B
:1015400004F0A2F8281204F093F8E8B204F090F83E
:1015500012E00E488079012804D10C480088401E12
:10156000001B84B209494889214604F0A3F80749C1
:101570008889294604F09EF80448008904490880B7
:101580004FF0D840A0F8806070BD0000D00100206E
:101590007E00006C00B5A1B00020209001217A20CF
:1015A00004F048F90121084604F054F94FF40040D2
:1015B0001E9001208DF87C0000208DF87E00022016
:1015C0008DF87D0001208DF87F001EA9FE48FFF7F1
:1015D00088FA4CF233701E9002208DF87C000020B7
:1015E0008DF87E0003208DF87D0001208DF87F00AE
:1015F0001EA9F648FFF775FA4FF680701E9002207C
:101600008DF87C0000208DF87E0003208DF87D0091
:1016100001208DF87F001EA9ED48FFF762FA4FF414
:1016200080501E9002208DF87C0000208DF87E00F6
:1016300003208DF87D0001208DF87F001EA9E5486C
:10164000FFF74FFA4FF480501E9002208DF87C0077
:1016500000208DF87E0003208DF87D0001208DF89C
:101660007F001EA9DC48FFF73CFA0C220021D74876
:10167000FFF77FFA0C220121D448FFF77AFA0C22F7
:101680000421D248FFF775FA0C220521CF48FFF755
:1016900070FA0C220821CD48FFF76BFA0C220921C1
:1016A000CA48FFF766FA0C220A21C848FFF761FA18
:1016B0000C220E21C548FFF75CFA0C220F21C3480B
:1016C000FFF757FA0C220721C148FFF752FA0C2204
:1016D0000821BF48FFF74DFA0C220921BC48FFF74B
:1016E00048FA0C220A21BA48FFF743FA0C220B21D0
:1016F000B748FFF73EFA0C221146B548FFF739FA12
:101700000C220D21B248FFF734FA0C220E21B0480A
:10171000FFF72FFA0C220F21AD48FFF72AFA0C220F
:101720001146AC48FFF725FA0C221146AA48FFF7EC
:1017300020FA0F200890002009903C200A900020F9
:101740000B900C900D900E900920019000200290BB
:101750000820039000200490059006900790062032
:101760000F900020109011901020129000201390E4
:1017700015901490169017904FF4805018900020F8
:1017800019904FF480401A9000201B9008A81C90DC
:1017900001A81D900FA8FFF731F901210620FFF7DE
:1017A00013F93220FFF7DAF80121002003F082FF5D
:1017B0003220FFF7D3F8002003F0AEFB8749888082
:1017C00008468088FF280ADB084680884FF6FF71AC
:1017D000884204D081488088B0F5134F7ED1D32051
:1017E00003F052FF03F08EFB7C49888003F08AFBF4
:1017F0007A49888003F086FB78498880084680888B
:101800004FF6FF7101EA00207449888003F07AFBEB
:10181000724989880843714988800846808849F25E
:10182000413188425AD0BF2003F02EFF03F06AFBFB
:101830006A49888003F066FB6849888003F062FB90
:101840006649888003F05EFB64498880084680888A
:101850004FF6FF7101EA00206049888003F052FBD7
:101860005E49898808435D4988800846808846F635
:10187000040188427AD0D42003F006FF03F042FB33
:101880005649888003F03EFB5449888003F03AFBB8
:1018900052498880084680884FF6FF7101EA00208F
:1018A0004E49888003F02EFB4C49898808434B49F8
:1018B00088800846808845F21031884256D04FF41F
:1018C0005A4003F0E1FE03F01DFB444988804FF4C9
:1018D0005B4003F0D9FE03F015FB00E046E03F4912
:1018E0008880084680884FF6FF7101EA00203B4956
:1018F00088804FF45C4003F0C7FE03F003FB3749D8
:10190000898808433549888008468088B0F5004FAB
:1019100002D145F2105088803048808845F210513D
:10192000884223D0A12003F0AFFE03F0EBFA2B494D
:10193000888003F0E7FA29498880084680884FF6B6
:10194000FF7101EA00202549888003F0DBFA234972
:1019500089880843214988800846808845F261715A
:10196000884203D141F663101C4988801B48808857
:1019700049F24131884211D01848808845F210312F
:1019800088420BD01548808845F21051884205D016
:101990001248808841F6631188422DD110480068B2
:1019A00020F00F004FF02041C1F81C010846D0F88C
:1019B0001C0120F47060C1F81C010846D0F81C011D
:1019C00040F004000EE0000000040240000C024061
:1019D000001002400014024000180240D001002014
:1019E0001C0100A0C1F81C010846D0F81C0140F4FD
:1019F0004070C1F81C0128E0FB48808846F60401CD
:101A0000884205D0F84880884CF2055188421CD1A4
:101A1000F648006820F00F004FF02041C1F81C018B
:101A20000846D0F81C0120F47060C1F81C0108467B
:101A3000D0F81C0140F00A00C1F81C010846D0F89B
:101A40001C0140F44060C1F81C01E748808849F25D
:101A5000413188427ED1CF2003F016FE002003F0F2
:101A600007FEC12003F004FE302003F001FEED204C
:101A700003F00AFE642003F0FBFD032003F0F8FDF1
:101A8000122003F0F5FD812003F0F2FDE82003F0C1
:101A9000FBFD852003F0ECFD102003F0E9FD7A202A
:101AA00003F0E6FDCB2003F0EFFD392003F0E0FD6D
:101AB0002C2003F0DDFD002003F0DAFD342003F0DC
:101AC000D7FD022003F0D4FDF72003F0DDFD202038
:101AD00003F0CEFDEA2003F0D7FD002003F0C8FD9F
:101AE000002003F0C5FDC02003F0CEFD1B2003F055
:101AF000BFFDC12003F0C8FD012003F0B9FDC520E2
:101B000003F0C2FD302003F0B3FD302003F0B0FD40
:101B1000C72003F0B9FDB72003F0AAFD362003F07B
:101B2000B3FD482003F0A4FD3A2003F0ADFD55209D
:101B300003F09EFDB12003F0A7FD002003F098FD07
:101B40001A2003F095FDB62003F09EFD0A2003F055
:101B50008FFD00E097E0A22003F08AFDF22003F061
:101B600093FD002003F084FD262003F08DFD01206D
:101B700003F07EFDE02003F087FD0F2003F078FDE9
:101B80002A2003F075FD282003F072FD082003F0E1
:101B90006FFD0E2003F06CFD082003F069FD54205A
:101BA00003F066FDA92003F063FD432003F060FD10
:101BB0000A2003F05DFD0F2003F05AFD002003F022
:101BC00057FD002003F054FD002003F051FD0020DC
:101BD00003F04EFDE12003F057FD002003F048FD27
:101BE000152003F045FD172003F042FD072003F008
:101BF0003FFD112003F03CFD062003F039FD2B20B2
:101C000003F036FD562003F033FD3C2003F030FD99
:101C1000052003F02DFD102003F02AFD0F2003F016
:101C200027FD3F2003F024FD3F2003F021FD0F207E
:101C300003F01EFD2B2003F027FD002003F018FD0C
:101C4000002003F015FD012003F012FD3F2003F0FA
:101C50000FFD2A2003F018FD002003F009FD0020ED
:101C600003F006FD002003F003FDEF2003F000FD6C
:101C7000112003F009FD7820FEF770FE292003F003
:101C800003FD03F021B95848808846F604018842D4
:101C90007ED1112003F0F8FC1420FEF75FFED02067
:101CA00003F0F2FC072003F0E3FC422003F0E0FC29
:101CB0001D2003F0DDFCD12003F0E6FC002003F042
:101CC000D7FC1A2003F0D4FC092003F0D1FCD22069
:101CD00003F0DAFC012003F0CBFC222003F0C8FC67
:101CE000C02003F0D1FC102003F0C2FC3B2003F025
:101CF000BFFC002003F0BCFC022003F0B9FC112063
:101D000003F0B6FCC52003F0BFFC032003F0B0FCD9
:101D1000C82003F0B9FC002003F0AAFC252003F042
:101D2000A7FC212003F0A4FC052003F0A1FC002067
:101D300003F09EFC0A2003F09BFC652003F098FC56
:101D4000252003F095FC772003F092FC502003F04F
:101D50008FFC0F2003F08CFC002003F089FCF8209E
:101D600003F092FC012003F083FCFE2003F08CFCC6
:101D7000002003F07DFC022003F07AFC202003F019
:101D800083FC362003F080FC082003F071FC00E0A7
:101D90002EE03A2003F078FC552003F069FC2B205C
:101DA00003F072FC002003F063FC002003F060FCF1
:101DB000012003F05DFC3F2003F05AFC2A2003F0D1
:101DC00063FC002003F054FC002003F051FC0120D0
:101DD00003F04EFCDF2003F04BFC7820FEF7BEFD45
:101DE000292003F051FC4CE7D00100201C0100A089
:101DF000FE48808845F21031884240F07C87ED2013
:101E000003F042FC012003F033FCFE2003F030FC21
:101E1000EE2003F039FCDE2003F02AFC212003F041
:101E200027FCF12003F030FC012003F021FCDF202F
:101E300003F02AFC102003F01BFCC42003F024FC58
:101E40008F2003F015FCC62003F01EFC002003F0D9
:101E50000FFCE22003F00CFCE22003F009FCE2207E
:101E600003F006FCBF2003F00FFCAA2003F000FCE7
:101E7000B02003F009FC0D2003F0FAFB002003F072
:101E8000F7FB0D2003F0F4FB002003F0F1FB112021
:101E900003F0EEFB002003F0EBFB192003F0E8FB5E
:101EA000002003F0E5FB212003F0E2FB002003F01B
:101EB000DFFB2D2003F0DCFB002003F0D9FB3D20ED
:101EC00003F0D6FB002003F0D3FB5D2003F0D0FB32
:101ED000002003F0CDFB5D2003F0CAFB002003F0DF
:101EE000C7FBB12003F0D0FB802003F0C1FB002032
:101EF00003F0BEFB8B2003F0BBFB002003F0B8FB1C
:101F0000962003F0B5FB002003F0B2FBB22003F0F3
:101F1000BBFB002003F0ACFB002003F0A9FB022078
:101F200003F0A6FB002003F0A3FB032003F0A0FBBB
:101F3000002003F09DFBB32003F0A6FB002003F07C
:101F400097FB002003F094FB002003F091FB00209E
:101F500003F08EFB002003F08BFB002003F088FBD6
:101F6000002003F085FB002003F082FB002003F03B
:101F70007FFB002003F07CFB002003F079FB0020B6
:101F800003F076FB002003F073FB002003F070FBEE
:101F9000002003F06DFB002003F06AFB002003F03B
:101FA00067FB002003F064FB002003F061FB0020CE
:101FB00003F05EFB002003F05BFB002003F058FB06
:101FC000002003F055FB002003F052FBB42003F087
:101FD0005BFB8B2003F04CFB002003F049FB9620B9
:101FE00003F046FB002003F043FBA12003F040FB7D
:101FF000002003F03DFBB52003F046FB022003F078
:1020000037FB002003F034FB032003F031FB0020FA
:1020100003F02EFB042003F02BFB002003F028FB31
:10202000B62003F031FB002003F022FB002003F078
:102030001FFBB72003F028FB002003F019FB002052
:1020400003F016FB3F2003F013FB002003F010FB0E
:102050005E2003F00DFB002003F00AFB642003F078
:1020600007FB002003F004FB8C2003F001FB0020A1
:1020700003F0FEFAAC2003F0FBFA002003F0F8FABC
:10208000DC2003F0F5FA002003F0F2FA702003F0F0
:10209000EFFA002003F0ECFA902003F0E9FA0020B8
:1020A00003F0E6FAEB2003F0E3FA002003F0E0FA95
:1020B000DC2003F0DDFA002003F0DAFAB82003F0A8
:1020C000E3FA002003F0D4FA002003F0D1FA002054
:1020D00003F0CEFA002003F0CBFA002003F0C8FA98
:1020E000002003F0C5FA002003F0C2FA002003F03C
:1020F000BFFABA2003F0C8FA242003F0B9FA00208E
:1021000003F0B6FA002003F0B3FA002003F0B0FAAF
:10211000C12003F0B9FA202003F0AAFA002003F04E
:10212000A7FA542003F0A4FA002003F0A1FAFF203C
:1021300003F09EFA002003F09BFAC22003F0A4FAF9
:102140000A2003F095FA002003F092FA042003F02D
:102150008FFA002003F08CFAC32003F095FA3C209C
:1021600003F086FA002003F083FA3A2003F080FAA5
:10217000002003F07DFA392003F07AFA002003F002
:1021800077FA372003F074FA002003F071FA3C204C
:1021900003F06EFA002003F06BFA362003F068FAC1
:1021A000002003F065FA322003F062FA002003F009
:1021B0005FFA2F2003F05CFA002003F059FA2C207C
:1021C00003F056FA002003F053FA292003F050FAE6
:1021D000002003F04DFA262003F04AFA002003F015
:1021E00047FA242003F044FA002001E0D001002047
:1021F00003F03EFA242003F03BFA002003F038FA03
:10220000232003F035FA002003F032FA3C2003F0DB
:102210002FFA002003F02CFA362003F029FA0020D0
:1022200003F026FA322003F023FA002003F020FA0C
:102230002F2003F01DFA002003F01AFA2C2003F0DF
:1022400017FA002003F014FA292003F011FA0020F5
:1022500003F00EFA262003F00BFA002003F008FA30
:10226000242003F005FA002003F002FA242003F0F2
:10227000FFF9002003F0FCF9232003F0F9F9002016
:1022800003F0F6F9C42003F0FFF9622003F0F0F93F
:10229000002003F0EDF9052003F0EAF9002003F037
:1022A000E7F9842003F0E4F9002003F0E1F9F020DD
:1022B00003F0DEF9002003F0DBF9182003F0D8F971
:1022C000002003F0D5F9A42003F0D2F9002003F098
:1022D000CFF9182003F0CCF9002003F0C9F9502001
:1022E00003F0C6F9002003F0C3F90C2003F0C0F995
:1022F000002003F0BDF9172003F0BAF9002003F025
:10230000B7F9952003F0B4F9002003F0B1F9F320F8
:1023100003F0AEF9002003F0ABF9E62003F0A8F9D2
:10232000002003F0A5F9C52003F0AEF9322003F038
:102330009FF9002003F09CF9442003F099F9002054
:1023400003F096F9652003F093F9002003F090F96B
:10235000762003F08DF9002003F08AF9882003F03D
:1023600087F9002003F084F9C62003F08DF92020BE
:1023700003F07EF9002003F07BF9172003F078F9D1
:10238000002003F075F9012003F072F9002003F03A
:102390006FF9C72003F078F9002003F069F90020F5
:1023A00003F066F9002003F063F9002003F060F900
:1023B000C82003F069F9002003F05AF9002003F067
:1023C00057F9002003F054F9002003F051F9C92017
:1023D00003F05AF9002003F04BF9002003F048F90C
:1023E000002003F045F9002003F042F9002003F03B
:1023F0003FF9002003F03CF9002003F039F90020F8
:1024000003F036F9002003F033F9002003F030F92F
:10241000002003F02DF9002003F02AF9002003F03A
:1024200027F9002003F024F9002003F021F900200F
:1024300003F01EF9E02003F027F9162003F018F945
:10244000002003F015F91C2003F012F9002003F01E
:102450000FF9212003F00CF9002003F009F93620D0
:1024600003F006F9002003F003F9462003F000F919
:10247000002003F0FDF8522003F0FAF8002003F0EA
:10248000F7F8642003F0F4F8002003F0F1F87A2064
:1024900003F0EEF8002003F0EBF88B2003F0E8F8EF
:1024A000002003F0E5F8992003F0E2F8002003F0A3
:1024B000DFF8A82003F0DCF8002003F0D9F8B920F9
:1024C00003F0D6F8002003F0D3F8C42003F0D0F8CE
:1024D000002003F0CDF8CA2003F0CAF8002003F072
:1024E000C7F8D22003F0C4F8002003F0C1F8D920C7
:1024F00003F0BEF8002003F0BBF8E02003F0B8F8CA
:10250000002003F0B5F8F32003F0B2F8002003F048
:10251000AFF8E12003F0B8F8162003F0A9F8002086
:1025200003F0A6F81C2003F0A3F8002003F0A0F8A5
:10253000222003F09DF8002003F09AF8362003F0E3
:1025400097F8002003F094F8452003F091F800205C
:1025500003F08EF8522003F08BF8002003F088F887
:10256000642003F085F8002003F082F87A2003F05D
:102570007FF8002003F07CF88B2003F079F800202E
:1025800003F076F8992003F073F8002003F070F858
:10259000A82003F06DF8002003F06AF8B92003F0DA
:1025A00067F8002003F064F8C42003F061F800200D
:1025B00003F05EF8CA2003F05BF8002003F058F83F
:1025C000D22003F055F8002003F052F8D82003F091
:1025D0004FF8002003F04CF8E02003F049F8002009
:1025E00003F046F8F32003F043F8002003F040F82E
:1025F000E22003F049F8052003F03AF8002003F048
:1026000037F80B2003F034F8002003F031F81B20DA
:1026100003F02EF8002003F02BF8342003F028F804
:10262000002003F025F8442003F022F8002003F0F6
:102630001FF84F2003F01CF8002003F019F8612068
:1026400003F016F8002003F013F8792003F010F8D7
:10265000002003F00DF8882003F00AF8002003F0B2
:1026600007F8972003F004F8002003F001F8A620F3
:1026700002F0FEFF002002F0FBFFB72002F0F8FF9F
:10268000002002F0F5FFC22002F0F2FF002002F06D
:10269000EFFFC72002F0ECFF002002F0E9FFD1209D
:1026A00002F0E6FF002002F0E3FFD62002F0E0FF98
:1026B000002002F0DDFFDD2002F0DAFF002002F052
:1026C000D7FFF32002F0D4FF002002F0D1FFE32077
:1026D00002F0DAFF052002F0CBFF002002F0C8FF75
:1026E0000A2002F0C5FF002002F0C2FF1C2002F009
:1026F000BFFF002002F0BCFF332002F0B9FF002032
:1027000002F0B6FF442002F0B3FF002002F0B0FF59
:10271000502002F0ADFF002002F0AAFF622002F07C
:10272000A7FF002002F0A4FF782002F0A1FF002004
:1027300002F09EFF882002F09BFF002002F098FF2D
:10274000972002F095FF002002F092FFA62002F0F1
:102750008FFF002002F08CFFB72002F089FF0020DD
:1027600002F086FFC22002F083FF002002F080FF0B
:10277000C72002F07DFF002002F07AFFD12002F096
:1027800077FF002002F074FFD52002F071FF0020D7
:1027900002F06EFFDD2002F06BFF002002F068FF08
:1027A000F32002F065FF002002F062FFE42002F057
:1027B0006BFF012002F05CFF002002F059FF0120B6
:1027C00002F056FF002002F053FF022002F050FFFB
:1027D000002002F04DFF2A2002F04AFF002002F004
:1027E00047FF3C2002F044FF002002F041FF4B2055
:1027F00002F03EFF002002F03BFF5D2002F038FFB8
:10280000002002F035FF742002F032FF002002F0B9
:102810002FFF842002F02CFF002002F029FF9320DC
:1028200002F026FF002002F023FFA22002F020FF8A
:10283000002002F01DFFB32002F01AFF002002F07A
:1028400017FFBE2002F014FF002002F011FFC42089
:1028500002F00EFF002002F00BFFCD2002F008FF77
:10286000002002F005FFD32002F002FF002002F05A
:10287000FFFEDD2002F0FCFE002002F0F9FEF32056
:1028800002F0F6FE002002F0F3FEE52002F0FCFE6E
:10289000002002F0EDFE002002F0EAFE002002F02F
:1028A000E7FE002002F0E4FE022002F0E1FE00203C
:1028B00002F0DEFE292002F0DBFE002002F0D8FE4E
:1028C0003C2002F0D5FE002002F0D2FE4B2002F0A8
:1028D000CFFE002002F0CCFE5D2002F0C9FE0020F9
:1028E00002F0C6FE742002F0C3FE002002F0C0FE1B
:1028F000842002F0BDFE002002F0BAFE932002F018
:10290000B7FE002002F0B4FEA22002F0B1FE0020CB
:1029100002F0AEFEB32002F0ABFE002002F0A8FEF3
:10292000BE2002F0A5FE002002F0A2FEC42002F0AC
:102930009FFE002002F09CFECD2002F099FE0020B8
:1029400002F096FED32002F093FE002002F090FEEB
:10295000DC2002F08DFE002002F08AFEF32002F05F
:1029600087FE002002F084FEE62002F08DFE11209A
:1029700002F07EFE002002F07BFE342002F078FEA2
:10298000002002F075FE562002F072FE002002F0D8
:102990006FFE762002F06CFE002002F069FE7720C8
:1029A00002F066FE002002F063FE662002F060FE88
:1029B000002002F05DFE882002F05AFE002002F0A6
:1029C00057FE992002F054FE002002F051FEBB2079
:1029D00002F04EFE002002F04BFE992002F048FE6D
:1029E000002002F045FE662002F042FE002002F0C8
:1029F0003FFE552002F03CFE002002F039FE55203B
:102A000002F036FE002002F033FE452002F030FED8
:102A1000002002F02DFE432002F02AFE002002F0EA
:102A200027FE442002F024FE002002F021FEE720D1
:102A300002F02AFE322002F01BFE002002F018FEF7
:102A4000552002F015FE002002F012FE762002F062
:102A50000FFE002002F00CFE662002F009FE0020AE
:102A600002F006FE672002F003FE002002F000FEE6
:102A7000672002F0FDFD002002F0FAFD872002F041
:102A8000F7FD002002F0F4FD992002F0F1FD002096
:102A900002F0EEFDBB2002F0EBFD002002F0E8FDAD
:102AA000992002F0E5FD002002F0E2FD772002F01F
:102AB000DFFD002002F0DCFD442002F0D9FD002003
:102AC00002F0D6FD562002F0D3FD002002F0D0FD2A
:102AD000232002F0CDFD002002F0CAFD332002F0D9
:102AE000C7FD002002F0C4FD452002F0C1FD00201A
:102AF00002F0BEFDE82002F0C7FD002002F0B8FDA4
:102B0000002002F0B5FD992002F0B2FD002002F095
:102B1000AFFD872002F0ACFD002002F0A9FD882067
:102B200002F0A6FD002002F0A3FD772002F0A0FD38
:102B3000002002F09DFD662002F09AFD002002F0C8
:102B400097FD882002F094FD002002F091FDAA205C
:102B500002F08EFD002002F08BFDBB2002F088FD0C
:102B6000002002F085FD992002F082FD002002F095
:102B70007FFD662002F07CFD002002F079FD5520EB
:102B800002F076FD002002F073FD552002F070FD8A
:102B9000002002F06DFD442002F06AFD002002F0EA
:102BA00067FD442002F064FD002002F061FD552025
:102BB00002F05EFD002002F05BFDE92002F064FD02
:102BC000AA2002F055FD002002F052FD002002F084
:102BD0004FFD002002F04CFD002002F055FDAA2020
:102BE00002F046FDCF2002F04FFD002002F040FD34
:102BF000002002F03DFD002002F03AFD002002F02E
:102C000037FD002002F034FD002002F031FD0020ED
:102C100002F02EFD002002F02BFD002002F028FD26
:102C2000002002F025FD002002F022FD002002F02D
:102C30001FFD002002F01CFD002002F019FD002005
:102C400002F016FD002002F013FD002002F010FD3E
:102C5000F02002F019FD002002F00AFD502002F0E1
:102C600007FD002002F004FD002002F001FD00201D
:102C700002F0FEFCF32002F007FD002002F0F8FC59
:102C8000F92002F001FD062002F0F2FC102002F013
:102C9000EFFC292002F0ECFC002002F0E9FC3A20D5
:102CA00002F0F2FC552002F0E3FC112002F0ECFCF3
:102CB0006420FDF753FE292002F0E6FC352002F0E7
:102CC000E3FC002002F0D4FC512002F0DDFCFF20E8
:102CD00002F0CEFC532002F0D7FC2C2002F0C8FCFE
:102CE000552002F0D1FC822002F0C2FC2C2002F020
:102CF000CBFC02F0E9B8FE48808845F210518842CA
:102D00007ED155214FF4704002F0D4FCAA214FF23D
:102D1000010002F0CFFC52214FF2020002F0CAFC87
:102D200008214FF2030002F0C5FC01214FF204001C
:102D300002F0C0FC0D214FF4304002F0BBFC0D212D
:102D40004BF2010002F0B6FC0D214BF2020002F042
:102D5000B1FC34214FF4364002F0ACFC34214BF28C
:102D6000016002F0A7FC34214BF2026002F0A2FCE9
:102D70000D214FF4314002F09DFC0D214BF201106A
:102D800002F098FC0D214BF2021002F093FC34216A
:102D90004FF4374002F08EFC34214BF2017002F008
:102DA00089FC34214BF2027002F084FC00214FF4C4
:102DB000324002F07FFC00214BF2012002F07AFC4D
:102DC00000214BF2022002F075FC24214FF4384020
:102DD00002F070FC24214BF6010002F06BFC242170
:102DE0004BF6020002F066FC01214FF43F4002F076
:102DF00061FC0F214FF4334002F05CFC0F2100E036
:102E0000FEE34BF2013002F055FC0F214BF2023091
:102E100002F050FC34214FF4394002F04BFC3421D5
:102E20004BF6011002F046FC34214BF6021002F082
:102E300041FC08214FF4354002F03CFC08214BF2E4
:102E4000015002F037FC08214BF2025002F032FC34
:102E500003214FF4424002F02DFC24214FF43A406C
:102E600002F028FC24214BF6012002F023FC24214F
:102E70004BF6022002F01EFC00214FF43C4002F011
:102E800019FC78214BF6014002F014FC00214BF6AE
:102E9000024002F00FFC00214FF43D4002F00AFC1A
:102EA00078214BF6015002F005FC00214BF6025050
:102EB00002F000FC00214FF43E4002F0FBFB6421D5
:102EC0004BF6016002F0F6FB00214FF4514002F096
:102ED000F1FB33214DF2011002F0ECFB00214DF229
:102EE000021002F0E7FB34214DF2031002F0E2FB86
:102EF00000214DF2041002F0DDFB3A214DF20510E5
:102F000002F0D8FB00214DF2061002F0D3FB4A215B
:102F10004DF2071002F0CEFB00214DF2081002F036
:102F2000C9FB5C214DF2091002F0C4FB00214DF2F7
:102F30000A1002F0BFFB81214DF20B1002F0BAFB28
:102F400000214DF20C1002F0B5FBA6214DF20D1040
:102F500002F0B0FB00214DF20E1002F0ABFBE521B8
:102F60004DF20F1002F0A6FB01214DF2101002F0FD
:102F7000A1FB13214DF2111002F09CFB01214DF237
:102F8000121002F097FB54214DF2131002F092FB45
:102F900001214DF2141002F08DFB82214DF215102B
:102FA00002F088FB01214DF2161002F083FBCA21CA
:102FB0004DF2171002F07EFB02214DF2181002F0C4
:102FC00079FB00214DF2191002F074FB02214DF241
:102FD0001A1002F06FFB01214DF21B1002F06AFB88
:102FE00002214DF21C1002F065FB34214DF21D1040
:102FF00002F060FB02214DF21E1002F05BFB672124
:103000004DF21F1002F056FB02214DF2201002F08B
:1030100051FB84214DF2211002F04CFB02214DF2B4
:10302000221002F047FBA4214DF2231002F042FBD4
:1030300002214DF2241002F03DFBB7214DF2251084
:1030400002F038FB02214DF2261002F033FBCF21B3
:103050004DF2271002F02EFB02214DF2281002F053
:1030600029FBDE214DF2291002F024FB02214DF252
:103070002A1002F01FFBF2214DF22B1002F01AFB76
:1030800002214DF22C1002F015FBFE214DF22D1005
:1030900002F010FB03214DF22E1002F00BFB102169
:1030A0004DF22F1002F006FB03214DF2301002F01A
:1030B00001FB33214DF2311002F0FCFA03214DF2F5
:1030C000321002F0F7FA6D214DF2331002F0F2FAED
:1030D00000214FF4524002F0EDFA33214DF201206D
:1030E00002F0E8FA00214DF2022002F0E3FA01E0DA
:1030F000D001002034214DF2032002F0DBFA002140
:103100004DF2042002F0D6FA3A214DF2052002F0E9
:10311000D1FA00214DF2062002F0CCFA4A214DF2FC
:10312000072002F0C7FA00214DF2082002F0C2FA8F
:103130005C214DF2092002F0BDFA00214DF20A2077
:1031400002F0B8FA81214DF20B2002F0B3FA00210F
:103150004DF20C2002F0AEFAA6214DF20D2002F045
:10316000A9FA00214DF20E2002F0A4FAE5214DF259
:103170000F2002F09FFA01214DF2102002F09AFA7E
:1031800013214DF2112002F095FA01214DF2122087
:1031900002F090FA54214DF2132002F08BFA012133
:1031A0004DF2142002F086FA82214DF2152002F031
:1031B00081FA01214DF2162002F07CFACA214DF26B
:1031C000172002F077FA02214DF2182002F072FA6D
:1031D00000214DF2192002F06DFA02214DF21A2061
:1031E00002F068FA01214DF21B2002F063FA02217D
:1031F0004DF21C2002F05EFA34214DF21D2002F047
:1032000059FA02214DF21E2002F054FA67214DF2C4
:103210001F2002F04FFA02214DF2202002F04AFA5C
:1032200084214DF2212002F045FA02214DF22220A4
:1032300002F040FAA4214DF2232002F03BFA0221D1
:103240004DF2242002F036FAB7214DF2252002F08B
:1032500031FA02214DF2262002F02CFACF214DF254
:10326000272002F027FA02214DF2282002F022FA4C
:10327000DE214DF2292002F01DFA02214DF22A2012
:1032800002F018FAF2214DF22B2002F013FA02217B
:103290004DF22C2002F00EFAFE214DF22D2002F00C
:1032A00009FA03214DF22E2002F004FA10214DF20A
:1032B0002F2002F0FFF903214DF2302002F0FAF93D
:1032C00033214DF2312002F0F5F903214DF2322085
:1032D00002F0F0F96D214DF2332002F0EBF90021FC
:1032E0004FF4534002F0E6F933214DF2013002F081
:1032F000E1F900214DF2023002F0DCF934214DF207
:10330000033002F0D7F900214DF2043002F0D2F977
:103310003A214DF2053002F0CDF900214DF2063090
:1033200002F0C8F94A214DF2073002F0C3F900213A
:103330004DF2083002F0BEF95C214DF2093002F086
:10334000B9F900214DF20A3002F0B4F981214DF2B1
:103350000B3002F0AFF900214DF20C3002F0AAF967
:10336000A6214DF20D3002F0A5F900214DF20E30EC
:1033700002F0A0F9E5214DF20F3002F09BF9012196
:103380004DF2103002F096F913214DF2113002F097
:1033900091F901214DF2123002F08CF954214DF2D5
:1033A000133002F087F901214DF2143002F082F956
:1033B00082214DF2153002F07DF901214DF21630D7
:1033C00002F078F9CA214DF2173002F073F90221A8
:1033D0004DF2183002F06EF900214DF2193002F072
:1033E00069F902214DF21A3002F064F901214DF21F
:1033F0001B3002F05FF902214DF21C3002F05AF945
:1034000034214DF21D3002F055F902214DF21E30EB
:1034100002F050F967214DF21F3002F04BF9022102
:103420004DF2203002F046F984214DF2213002F0B5
:1034300041F902214DF2223002F03CF9A4214DF273
:10344000233002F037F902214DF2243002F032F934
:10345000B7214DF2253002F02DF902214DF2263030
:1034600002F028F9CF214DF2273002F023F9022192
:103470004DF2283002F01EF9DE214DF2293002F023
:1034800019F902214DF22A3002F014F9F2214DF21D
:103490002B3002F00FF902214DF22C3002F00AF924
:1034A000FE214DF22D3002F005F903214DF22E30B0
:1034B00002F000F910214DF22F3002F0FBF8032149
:1034C0004DF2303002F0F6F833214DF2313002F097
:1034D000F1F803214DF2323002F0ECF86D214DF29B
:1034E000333002F0E7F800214FF4544002F0E2F8E4
:1034F00033214DF2014002F0DDF800214DF202408F
:1035000002F0D8F834214DF2034002F0D3F8002144
:103510004DF2044002F0CEF83A214DF2054002F09F
:10352000C9F800214DF2064002F0C4F84A214DF2DC
:10353000074002F0BFF800214DF2084002F0BAF84F
:103540005C214DF2094002F0B5F800214DF20A402D
:1035500002F0B0F881214DF20B4002F0ABF80021EF
:103560004DF20C4002F0A6F8A6214DF20D4002F0FB
:10357000A1F800214DF20E4002F09CF8E5214DF239
:103580000F4002F097F801214DF2104002F092F83E
:1035900013214DF2114002F08DF801214DF212403D
:1035A00002F088F854214DF2134002F083F8012113
:1035B0004DF2144002F07EF882214DF2154002F0E7
:1035C00079F801214DF2164002F074F8CA214DF24B
:1035D000174002F06FF802214DF2184002F06AF82D
:1035E00000214DF2194002F065F802214DF21A4017
:1035F00002F060F801214DF21B4002F05BF800E0A0
:1036000004E302214DF21C4002F054F834214DF243
:103610001D4002F04FF802214DF21E4002F04AF820
:1036200067214DF21F4002F045F802214DF2204083
:1036300002F040F884214DF2214002F03BF80221D3
:103640004DF2224002F036F8A4214DF2234002F060
:1036500031F802214DF2244002F02CF8B7214DF24E
:10366000254002F027F802214DF2264002F022F810
:10367000CF214DF2274002F01DF802214DF22840E3
:1036800002F018F8DE214DF2294002F013F8022171
:103690004DF22A4002F00EF8F2214DF22B4002F0DA
:1036A00009F802214DF22C4002F004F8FE214DF2FF
:1036B0002D4001F0FFFF03214DF22E4001F0FAFFF3
:1036C00010214DF22F4001F0F5FF03214DF2304063
:1036D00001F0F0FF33214DF2314001F0EBFF032107
:1036E0004DF2324001F0E6FF6D214DF2334001F022
:1036F000E1FF00214FF4554001F0DCFF33214DF292
:10370000015001F0D7FF00214DF2025001F0D2FF2D
:1037100034214DF2035001F0CDFF00214DF2045051
:1037200001F0C8FF3A214DF2055001F0C3FF00211E
:103730004DF2065001F0BEFF4A214DF2075001F054
:10374000B9FF00214DF2085001F0B4FF5C214DF2A9
:10375000095001F0AFFF00214DF20A5001F0AAFF1D
:1037600081214DF20B5001F0A5FF00214DF20C50CC
:1037700001F0A0FFA6214DF20D5001F09BFF0021AA
:103780004DF20E5001F096FFE5214DF20F5001F081
:1037900091FF01214DF2105001F08CFF13214DF2E9
:1037A000115001F087FF01214DF2125001F082FF0C
:1037B00054214DF2135001F07DFF01214DF21450C0
:1037C00001F078FF82214DF2155001F073FF0121C5
:1037D0004DF2165001F06EFFCA214DF2175001F064
:1037E00069FF02214DF2185001F064FF00214DF2F3
:1037F000195001F05FFF02214DF21A5001F05AFFFB
:1038000001214DF21B5001F055FF02214DF21C50D9
:1038100001F050FF34214DF21D5001F04BFF022109
:103820004DF21E5001F046FF67214DF21F5001F08E
:1038300041FF02214DF2205001F03CFF84214DF266
:10384000215001F037FF02214DF2225001F032FFEA
:10385000A4214DF2235001F02DFF02214DF22450FE
:1038600001F028FFB7214DF2255001F023FF02217E
:103870004DF2265001F01EFFCF214DF2275001F0EE
:1038800019FF02214DF2285001F014FFDE214DF204
:10389000295001F00FFF02214DF22A5001F00AFFDA
:1038A000F2214DF22B5001F005FF02214DF22C5078
:1038B00001F000FFFE214DF22D5001F0FBFE03212F
:1038C0004DF22E5001F0F6FE10214DF22F5001F076
:1038D000F1FE03214DF2305001F0ECFE33214DF2A8
:1038E000315001F0E7FE03214DF2325001F0E2FECB
:1038F0006D214DF2335001F0DDFE00214FF45640B2
:1039000001F0D8FE33214DF2016001F0D3FE002119
:103910004DF2026001F0CEFE34214DF2036001F061
:10392000C9FE00214DF2046001F0C4FE3A214DF2BF
:10393000056001F0BFFE00214DF2066001F0BAFE05
:103940004A214DF2076001F0B5FE00214DF20860FA
:1039500001F0B0FE5C214DF2096001F0ABFE0021E8
:103960004DF20A6001F0A6FE81214DF20B6001F0DC
:10397000A1FE00214DF20C6001F09CFEA6214DF24B
:103980000D6001F097FE00214DF20E6001F092FEF5
:10399000E5214DF20F6001F08DFE01214DF2106026
:1039A00001F088FE13214DF2116001F083FE012128
:1039B0004DF2126001F07EFE54214DF2136001F0D1
:1039C00079FE01214DF2146001F074FE82214DF266
:1039D000156001F06FFE01214DF2166001F06AFEE4
:1039E000CA214DF2176001F065FE02214DF2186008
:1039F00001F060FE00214DF2196001F05BFE022132
:103A00004DF21A6001F056FE01214DF21B6001F0EB
:103A100051FE02214DF21C6001F04CFE34214DF2AA
:103A20001D6001F047FE02214DF21E6001F042FED2
:103A300067214DF21F6001F03DFE02214DF2206032
:103A400001F038FE84214DF2216001F033FE0221A5
:103A50004DF2226001F02EFEA4214DF2236001F010
:103A600029FE02214DF2246001F024FEB7214DF21F
:103A7000256001F01FFE02214DF2266001F01AFEC2
:103A8000CF214DF2276001F015FE02214DF2286092
:103A900001F010FEDE214DF2296001F00BFE022143
:103AA0004DF22A6001F006FEF2214DF22B6001F08A
:103AB00001FE02214DF22C6001F0FCFDFE214DF2D1
:103AC0002D6001F0F7FD03214DF22E6001F0F2FDB3
:103AD00010214DF22F6001F0EDFD03214DF2306019
:103AE00001F0E8FD33214DF2316001F0E3FD0321E7
:103AF0004DF2326001F0DEFD6D214DF2336001F0D8
:103B0000D9FD55214FF4704001F0D4FDAA214FF2A8
:103B1000010001F0CFFD52214FF2020001F0CAFD79
:103B200008214FF2030001F0C5FD00214FF204000F
:103B300001F0C0FDCC214FF4314001F0BBFD00216C
:103B40004BF2011001F0B6FD05214FF4364001F0B3
:103B5000B1FD70214FF4374001F0ACFD70214BF204
:103B6000017001F0A7FD01214FF4384001F0A2FDE2
:103B700003214BF6010001F09DFD03214BF60200ED
:103B800001F098FD03214BF6030001F093FD0221A3
:103B90004FF43C4001F08EFD00214BF6014001F056
:103BA00089FD00214BF6024001F084FDD0214FF445
:103BB000494001F07FFD02214CF6011001F07AFD31
:103BC00050214CF6021001F075FD50214CF6031007
:103BD00001F070FD50214CF6041001F06BFD002146
:103BE0004FF4545001F066FD55214FF4685001F038
:103BF00061FD4FF4885001F047FD7820FCF7C8FEC6
:103C00004FF4245001F040FD01F05EB9FE48808879
:103C100049F2253188427DD147F6F001E52001F0D7
:103C200049FD4FF48071012001F044FD4FF4E06143
:103C3000022001F03FFD41F23001032001F03AFD86
:103C40000021042001F036FD40F20221082001F09D
:103C500031FD0021092001F02DFD00210A2001F095
:103C600029FD00210C2001F025FD00210D2001F08F
:103C700021FD00210F2001F01DFD0021102001F089
:103C800019FD0721112001F015FD0021122001F07E
:103C900011FD0021132001F00DFD0021072001F08E
:103CA00009FD41F29061102001F004FD40F227214E
:103CB000112001F0FFFC9D21122001F0FBFC4FF4CC
:103CC000C851132001F0F6FC2521292001F0F2FC57
:103CD0000D212B2001F0EEFC0721302001F0EAFC41
:103CE00040F20331312001F0E5FC0321322001F0E4
:103CF000E1FC40F20621352001F0DCFC08213620F1
:103D000001F0D8FC40F20641372001F0D3FC4FF41B
:103D1000417100E058E0382001F0CCFC0721392047
:103D200001F0C8FC40F202613C2001F0C3FC082114
:103D30003D2001F0BFFC0021502001F0BBFCEF2131
:103D4000512001F0B7FC0021522001F0B3FC40F2F9
:103D50003F11532001F0AEFC4FF42741602001F0E9
:103D6000A9FC0121612001F0A5FC00216A2001F0DD
:103D7000A1FC0021802001F09DFC0021812001F0A8
:103D800099FC0021822001F095FC0021832001F0A4
:103D900091FC0021842001F08DFC0021852001F0A0
:103DA00089FC1021902001F085FC4FF4C061922025
:103DB00001F080FC40F23311072001F07BFC22214E
:103DC000002001F077FC1FE78F48808849F22831F6
:103DD00088427DD141F28F01EC2001F06BFC41F271
:103DE0003421EF2001F066FC4FF48071012001F0D6
:103DF00061FC4FF4E061022001F05CFC41F2300113
:103E0000032001F057FC0021042001F053FC40F294
:103E10000221082001F04EFC0021092001F04AFC9B
:103E200000210A2001F046FC01210C2001F042FC97
:103E300000210D2001F03EFC00210F2001F03AFC92
:103E40000021102001F036FC0721112001F032FC86
:103E50000021122001F02EFC0021132001F02AFC89
:103E60000121072001F026FC3220FCF777FD41F20A
:103E70009041102001F01EFC40F22721112001F09A
:103E800019FC3220FCF76AFD8A21122001F012FC95
:103E90003220FCF763FD4FF4D051132001F00AFCEF
:103EA0000621292001F006FC0D212B2001F002FC47
:103EB0003220FCF753FD0021202001F0FBFB002104
:103EC000212001F0F7FB3220FCF748FD002100E043
:103ED00075E0302001F0EEFB40F20461312001F08A
:103EE000E9FB40F20531322001F0E4FB00213520EE
:103EF00001F0E0FB40F60941362001F0DBFB4FF416
:103F00000171372001F0D6FB40F20131382001F079
:103F1000D1FB40F20771392001F0CCFB00213C209D
:103F200001F0C8FB40F60A213D2001F0C3FB32201E
:103F3000FCF714FD0021502001F0BCFBEF215120C3
:103F400001F0B8FB0021522001F0B4FB40F23F1118
:103F5000532001F0AFFB4FF42741602001F0AAFB92
:103F60000121612001F0A6FB00216A2001F0A2FBE3
:103F70000021802001F09EFB0021812001F09AFBAE
:103F80000021822001F096FB0021832001F092FBAA
:103F90000021842001F08EFB0021852001F08AFBA6
:103FA0001021902001F086FB4FF4C061922001F0B7
:103FB00081FB40F23311072001F07CFB24E612481C
:103FC000808849F2203188427ED10021084601F0E4
:103FD00071FB4FF48071012001F06CFB4FF4E06144
:103FE000022001F067FB41F23001032001F062FB87
:103FF0000021042001F05EFB40F20221082001F0C4
:1040000059FB0021092001E0D001002001F052FB02
:1040100000210A2001F04EFB01210C2001F04AFB97
:1040200000210D2001F046FB00210F2001F042FB92
:104030003220FCF793FC40F20111072001F03AFB1B
:104040003220FCF78BFC4FF48651102001F032FB3C
:104050000721112001F02EFB4FF48871122001F08E
:1040600029FB4FF43061132001F024FB00212920AB
:1040700001F020FB44F210012B2001F01BFB00217A
:10408000502001F017FBEF21512001F013FB00211C
:10409000522001F00FFB40F23F11532001F00AFBC8
:1040A0004FF41C51602001F005FB0121612001F05B
:1040B00001FB00216A2001F0FDFA0021802001F0BF
:1040C000F9FA0021812000E030E001F0F3FA00214C
:1040D000822001F0EFFA0021832001F0EBFA0021A9
:1040E000842001F0E7FA0021852001F0E3FA102195
:1040F000902001F0DFFA0021922001F0DBFA01218B
:10410000932001F0D7FA4FF48871952001F0D2FA8C
:104110000021972001F0CEFA0021982001F0CAFA80
:1041200040F27311072001F0C5FA6DE5FE48808862
:1041300049F2313188427DD141F21401E72001F08A
:10414000B9FA4FF48071012001F0B4FA4FF4007114
:10415000022001F0AFFA41F23801032001F0AAFA7F
:1041600040F20221082001F0A5FA0021092001F007
:10417000A1FA00210A2001F09DFA00210C2001F093
:1041800099FA00210D2001F095FA00210F2001F08D
:1041900091FA0021102001F08DFA0721112001F081
:1041A00089FA0021122001F085FA0021132001F084
:1041B00081FAC820FCF7D2FB41F29061102001F097
:1041C00079FA40F22721112001F074FA3220FCF72D
:1041D000C5FB0C21122001F06DFA3220FCF7BEFB6A
:1041E0004FF40061132001F065FA1121292001F03C
:1041F00061FA0B212B2001F05DFA3220FCF7AEFBB7
:104200000021202001F056FA40F23F11212001F058
:1042100051FA0021302001F04DFA4FF48371312022
:1042200001F048FA0021322001F044FA4FF4017104
:10423000352000E064E001F03DFA41F20A613620E9
:1042400001F038FA40F20771372001F033FA4FF4E9
:104250008371382001F02EFA40F20771392001F005
:1042600029FA40F202413C2001F024FA40F60F41C5
:104270003D2001F01FFA0021502001F01BFAEF2130
:10428000512001F017FA0021522001F013FA40F2F8
:104290003F11532001F00EFA4FF41C51602001F041
:1042A00009FA0121612001F005FA00216A2001F0DC
:1042B00001FA0021802001F0FDF90021812001F0A8
:1042C000F9F90021822001F0F5F90021832001F0A5
:1042D000F1F90021842001F0EDF90021852001F0A1
:1042E000E9F91021902001F0E5F94FF4C061922026
:1042F00001F0E0F940F23311072001F0DBF983E42B
:104300008948808845F2084188427DD14FF4807108
:10431000012001F0CFF94FF4E061022001F0CAF969
:1043200041F23001032001F0C5F90021042001F021
:10433000C1F940F20721082001F0BCF90021092051
:1043400001F0B8F900210A2001F0B4F900210C2095
:1043500001F0B0F900210D2001F0ACF900210F208F
:1043600001F0A8F91420FCF7F9FA41F2B06110202D
:1043700001F0A0F90121112001F09CF90121172081
:1043800001F098F94FF49C71122001F093F94FF469
:104390000061132001F08EF90921292001F08AF92A
:1043A00009212A2001F086F90021A42001F082F9D8
:1043B0000021502001F07EF9EF21512001F07AF91F
:1043C0000021522001F076F940F23F11532001F014
:1043D00071F94FF41C51602001F06CF9012161204A
:1043E00001F068F900216A2001F064F900218020C1
:1043F00001F060F90021812001F05CF900218220A8
:1044000001F058F9002100E024E0832001F052F986
:104410000021842001F04EF90021852001F04AF9A5
:104420001321902001F046F90021922001F042F979
:104430000321932001F03EF94FF48871952001F09B
:1044400039F940F27311072001F034F93220FCF7FA
:1044500085FAB8E43448808841F2055188427DD11C
:104460000021072001F026F93220FCF777FA4FF4FB
:104470008E71122001F01EF90121A42001F01AF919
:104480000F21082001F016F908210A2001F012F985
:1044900008210D2001F00EF940F20771302001F0E3
:1044A00009F90721312001F005F940F203613220BA
:1044B00001F000F94FF4E061332001F0FBF840F225
:1044C0000221342001F0F6F80221352001F0F2F843
:1044D00041F60F71362001F0EDF840F207713720F8
:1044E00001F0E8F80021382001F0E4F8002139203B
:1044F00001F0E0F840F207713A2001F0DBF800210A
:104500003B2001F0D7F807213C2001F0D3F800212F
:104510003D2001F0CFF83220FCF720FA01210720DE
:1045200001F0C8F8012101E0D0010020172001F0BE
:10453000C1F83220FCF712FA4FF4BD51102001F0FF
:10454000B9F840F21721112001F0B4F84FF48F713F
:10455000122001F0AFF84FF4706100E098E01320F2
:1045600001F0A8F800212A2001F0A4F80A2129204E
:1045700001F0A0F84FF49F71122001F09BF8002188
:10458000502001F097F8EF21512001F093F800211D
:10459000522001F08FF840F23F11532001F08AF8C9
:1045A0004FF41C51602001F085F80121612001F0D9
:1045B00081F800216A2001F07DF80021802001F0BF
:1045C00079F80021812001F075F80021822001F0A6
:1045D00071F80021832001F06DF80021842001F0A2
:1045E00069F80021852001F065F81321902001F081
:1045F00061F84FF44071922001F05CF8052193209E
:1046000001F058F80021952001F054F8002197207E
:1046100001F050F80021982001F04CF84FF480711F
:10462000012001F047F84FF4E061022001F042F868
:1046300041F23801032001F03DF80021042001F08F
:1046400039F800210C2001F035F800210F2001F08D
:1046500031F80021202001F02DF80021212001F067
:1046600029F82121072001F025F81420FCF776F91C
:104670006121072001F01EF81420FCF76FF940F2C9
:104680007311072001F016F81420FCF767F995E480
:10469000FE4880884BF2055188427CD100210846B3
:1046A00001F008F80021084601F004F8002108464E
:1046B00001F000F80021084600F0FCFF0121A420D1
:1046C00000F0F8FF1420FCF749F94FF41C5160206A
:1046D00000F0F0FF40F20221082000F0EBFF4FF461
:1046E0000571302000F0E6FF43F21571312000F033
:1046F000E1FF40F20461322000F0DCFF40F6166179
:10470000332000F0D7FF42F21121342000F0D2FF15
:104710004FF4A851352000F0CDFF48F20751362064
:1047200000F0C8FF41F20741372000F0C3FF41F21B
:104730000341382000F0BEFF2021392000F0BAFFED
:104740001A21902000F0B6FF0021102000F0B2FFE7
:104750000721112000F0AEFF0021122000F0AAFF77
:104760000021132000F0A6FF1420FCF7F7F84FF407
:10477000E661102000F09EFF40F23711112000F09A
:1047800099FF1420FCF7EAF84FF4DC71122000F0D6
:1047900091FF142000E085E0FCF7E0F84FF4706131
:1047A000132000F087FF80212A2000F083FF48219A
:1047B000292000F07FFF1420FCF7D0F84FF480711F
:1047C000012000F077FF4FF4E061022000F072FF5B
:1047D00041F23801032000F06DFF40F20221082071
:1047E00000F068FF00210A2000F064FF00210C2087
:1047F00000F060FF00210D2000F05CFF30210E2052
:1048000000F058FF0021502000F054FFEF2151200C
:1048100000F050FF0021522000F04CFF40F23F1109
:10482000532000F047FF4FF41C51602000F042FF7E
:104830000121612000F03EFF00216A2000F03AFFD4
:104840001121902000F036FF4FF4C061922000F05B
:1048500031FF40F20241932000F02CFF022194200E
:1048600000F028FF1420FCF779F80121072000F060
:1048700021FF1420FCF772F86121072000F01AFFD5
:1048800040F27311072000F015FF0021202000F0F6
:1048900011FF0021212000F00DFF2221002000F057
:1048A00009FF11E3794880884CF2055188427CD198
:1048B0000021084600F0FEFE0021084600F0FAFE46
:1048C0001420FCF74BF80021084600F0F3FE00210D
:1048D000084600F0EFFE0021084600F0EBFE002144
:1048E000084600F0E7FE0121A42000F0E3FE1420BA
:1048F000FCF734F84FF41C51602000F0DBFE40F66A
:104900000601082000F0D6FE40F20371302000F0CE
:10491000D1FE0121312000F0CDFE0421322000F033
:10492000C9FE4FF48171332000F0C4FE4FF4407192
:10493000342000F0BFFE40F20311352000F0BAFE33
:104940001F21362000F0B6FE40F20371372000F040
:10495000B1FE0121382000F0ADFE0421392000F025
:10496000A9FE1521902000F0A5FE4FF482611020D1
:1049700000F0A0FE40F24721112000F09BFE4FF412
:10498000DE71122000F096FE4FF46061132000F0FB
:1049900091FE7820FBF7E2FF4FF48071012000F0D8
:1049A00089FE4FF40071022000E052E000F082FE28
:1049B00041F23001032000F07DFE08210A2000F0C2
:1049C00079FE00210C2000F075FE20210E2000F061
:1049D00071FE00210F2000F06DFE0021202000F06C
:1049E00069FE0021212000F065FE3D212A2000F013
:1049F00061FE1420FBF7B2FF2D21292000F05AFEA2
:104A00000021502000F056FE4DF2EF01512000F041
:104A100051FE0021522000F04DFE40F23F11532084
:104A200000F048FE0021612000F044FE00216A20D1
:104A300000F040FE4FF44071922000F03BFE052153
:104A4000932000F037FE4FF48071072000F032FE13
:104A50003AE20E48808844F2315188427ED10121E9
:104A6000002000F027FE0A20FBF778FF41F22861C2
:104A7000102000F01FFE0E21122000F01BFE40F659
:104A80003921132000F016FE0A2001E0D001002099
:104A9000FBF764FF4021112000F00CFE502115208F
:104AA00000F008FE0A20FBF759FF1E21122000F03B
:104AB00001FE0A20FBF752FF4FF4B151102000F025
:104AC000F9FD42F63921132000F0F4FD0A20FBF72E
:104AD00045FF4FF48071012000F0ECFD4FF4407170
:104AE000022000F0E7FD41F23801032000F0E2FD72
:104AF00040F20221082000F0DDFD08210A2000F02C
:104B0000D9FD0021302000F0D5FD40F202413120D6
:104B100000F0D0FD4FF48371322000F0CBFD40F265
:104B20000351332000F0C6FD4FF48271342000F0B1
:104B3000C1FD40F20131352000F0BCFD40F20771AB
:104B4000362000F0B7FD40F20531372000F0B2FD0D
:104B50004FF40271382000F0ADFD00E03EE040F679
:104B60000B71392000F0A6FD0221412000F0A2FDCA
:104B70004FF41C51602000F09DFD0121612000F0E8
:104B800099FD4FF40471902000F094FD4FF485716D
:104B9000922000F08FFD0421932000F08BFD4FF454
:104BA0008071A02000F086FD0121072000F082FD29
:104BB0002121072000F07EFD2321072000F07AFD4F
:104BC0003321072000F076FD40F23311072000F07A
:104BD00071FD0021A02000F06DFD75E1C1488088C5
:104BE00044F2355188427CD13021152000F062FD1D
:104BF00010219A2000F05EFD2021112000F05AFDC6
:104C000043F22841102000F055FD0221122000F04F
:104C100051FD41F23801132000F04CFD2820FBF734
:104C20009DFE1221084600F045FD2820FBF796FE68
:104C300043F22041102000F03DFD43F238011320E3
:104C400000F038FD4620FBF789FE0021302000F0FF
:104C500031FD40F20241312000F02CFD40F20731DD
:104C6000322000F027FD4FF44171332000F022FD87
:104C70000421342000F01EFD40F20141352000F0F7
:104C800019FD40F20771362000F014FD40F20531A5
:104C9000372000F00FFD4FF4C261382000F00AFD0C
:104CA0004FF4C261392000F005FD4FF480710120FE
:104CB00000F000FD4FF44071022000F0FBFC41F2D7
:104CC0003001032000F0F6FC40F60801082000F057
:104CD000F1FC08210A2000F0EDFC4FF41C5160208B
:104CE00000E033E000F0E6FC0121612000F0E2FC8E
:104CF0004FF49F71902000F0DDFC4FF48071922002
:104D000000F0D8FC4FF48071932000F0D3FC4FF4F6
:104D10004051A02000F0CEFC1021A32000F0CAFCDE
:104D20000121072000F0C6FC2121072000F0C2FC71
:104D30002321072000F0BEFC3321072000F0BAFC3D
:104D400040F23311072000F0B5FCBDE065488088D3
:104D500041F663118842F8D1E22000F095FC1D2055
:104D600000F086FC022000F083FC042000F080FCB0
:104D70006420FBF70DFEE02000F086FC012000F02F
:104D800077FC0A20FBF7EAFDE02000F07DFC032021
:104D900000F06EFC0C20FBF7E1FD012000F074FC3C
:104DA0000A20FBF7DBFDE62000F06EFC2F2000F070
:104DB0005FFCFF2000F05CFCFF2000F059FCB020FD
:104DC00000F062FC202000F053FC002000F050FCBA
:104DD000032000F04DFC40F21F3000F049FC0120A0
:104DE00000F046FC40F2DF1000F042FC002000F032
:104DF0003FFCB42000F048FC042000F039FC40F2F5
:104E00001F4000F035FC002000F032FC2E2000F0A6
:104E10002FFC002000F02CFC002000F029FC0020DA
:104E200000F026FC002000F023FCB62000F02CFC53
:104E3000022000F01DFC4FF4037000F019FC00206C
:104E400000F016FC172000F013FC152000F010FCF9
:104E5000002000F00DFC002000F00AFCF02000F023
:104E600013FC032000F004FC292000F00DFCD020EE
:104E700000F00AFC002000F0FBFBBE2000F004FC68
:104E8000052000F0F5FBFE2000F0F2FB012000F011
:104E9000EFFB002000F0ECFB002000F0E9FB00201D
:104EA00000F0E6FBB82000F0EFFB032000F0E0FB91
:104EB000012000F0DDFBBA2000F0E6FB012000F04D
:104EC000D7FB642000F034F80020FCF7C3F94FF45E
:104ED00000410548FBF77BFE4FF6FF70FCF754F9E5
:104EE00021B000BDD00100200004024010B50246F0
:104EF000012000E050430B1EA1F10104E1B2F9D101
:104F000010BD000008B5034800880090BDF80000FF
:104F100008BD00008000006C10B50446204600F07B
:104F2000B3FB0520FBF734FDFFF7ECFF10BD0000DD
:104F300070B52DED048B0446BE2000F0A5FB0520C6
:104F400000F096FB2046FBF7FFF941EC190B9FEDB3
:104F50000E0B53EC102BFBF785F941EC180BFBF70C
:104F600000FA85B2284600F083FB012000F080FBA8
:104F7000FF2000F07DFB002000F07AFB002000F015
:104F800077FBBDEC048B70BD6666666666660440A2
:104F9000F0B5054600240027B748807901280BD1D9
:104FA000B548808846F60401884205D0B24880881A
:104FB00041F66311884208D1AF488079F0B9AE4814
:104FC000808841F66311884218D1082D15D2DFE898
:104FD00005F00406080A0C0E101206250DE0072540
:104FE0000BE0042509E0052507E0012505E0002583
:104FF00003E0032501E0022500BF00BF9E48808832
:1050000049F24131884217D09B48808846F6040116
:10501000884211D09848808845F2103188420BD0E0
:105020009548808845F21051884205D09248808882
:1050300041F6631188427DD1082D1CD2DFE805F0CE
:105040000406090C0F12151800BF14E044F0800488
:1050500011E044F040040EE044F0C0040BE044F0E2
:10506000200408E044F0600405E044F0A00402E0FD
:1050700044F0E00400BF00BF7F48808845F2105133
:10508000884202D14FF4585700E036277A4880888A
:1050900045F2103188420DD07748808845F2105192
:1050A000884207D07448808841F66311884201D055
:1050B00044F008047048808846F60401884201D113
:1050C00044F002042146384600F0F4FA6A48808829
:1050D00041F6631188421DD004F0200068B1664893
:1050E000008865494988884214DA63480688408800
:1050F00061490880084646800CE05F4800885E49A8
:105100004988884206DD5C48068840885A490880FC
:10511000084646805848808845F21051884254D14C
:105120005549488900F0B0FA002000F0A1FA524930
:10513000498900E078E0491C88B200F0A5FA002017
:1051400000F096FA4C494989891C88B200F09CFA13
:1051500049490988491EC1F30F2000F089FA4649E0
:105160004989C91C88B200F08FFA43490978491E61
:10517000C8B200F07DFA4049888900F085FA002025
:1051800000F076FA3C498989491C88B200F07CFA23
:10519000002000F06DFA38498989891C88B200F036
:1051A00073FA35494988491EC1F30F2000F060FAAF
:1051B00031498989C91C88B200F066FA2E4989787C
:1051C000491EC8B200F054FA55E02B49488900F056
:1051D0005BFA002000F04CFA002000F049FA264962
:1051E0000988491EC1F30F2000F042FA22490978CC
:1051F000491EC8B200F03CFA1F49888900F044FA01
:10520000002000F035FA002000F032FA1A494988EF
:10521000491EC1F30F2000F02BFA17498978491E67
:10522000C8B200F025FA26E0082D1CD2DFE805F010
:1052300004070A0D0F12151844F0300413E044F06F
:10524000100410E044F020040DE000BF0BE044F037
:10525000380408E044F0280405E044F0180402E0B3
:1052600044F0080400BF00BF032744F480542146E3
:10527000384600F01FFAF0BDD001002030B50446DA
:105280000D466748808849F24131884205D064481C
:10529000808845F21031884214D16149488900F074
:1052A000F3F9201200F0E4F9E0B200F0E1F95C4912
:1052B000888900F0E9F9281200F0DAF9E8B200F084
:1052C000D7F9ABE05648808846F6040188421DD1E4
:1052D00053488079012804D151480088401E001BA2
:1052E00084B24F49488900F0CFF9201200F0C0F98C
:1052F000E0B200F0BDF94A49888900F0C5F92812EA
:1053000000F0B6F9E8B200F0B3F987E044488088CD
:1053100041F66311884247D141488079A8B9404895
:105320000088401E001B84B23D49488900F0ACF95A
:10533000002000F09DF9002000F09AF9201200F002
:1053400097F9E0B200F094F916E03549488900F089
:105350009BF9201200F08CF9E0B200F089F9304995
:105360000988491EC1F30F2000F082F92C49097801
:10537000491EC8B200F07CF92949888900F084F9F7
:10538000281200F075F9E8B200F072F92449498852
:10539000491EC1F30F2000F06BF921498978491E9D
:1053A000C8B200F065F939E01D48808845F2105117
:1053B000884220D11A49488900F066F9201200F08D
:1053C00057F917494989491C88B200F05DF9E0B2E4
:1053D00000F04EF91249888900F056F9281200F0C1
:1053E00047F90F498989491C88B200F04DF9E8B2A4
:1053F00000F03EF912E00A488079012804D10848FB
:105400000088401E001B84B205494889214600F0EF
:1054100051F903498889294600F04CF930BD000054
:10542000D00100202DE9F84F80460E4617461C4655
:10543000B3462046E31704EB5373DB1021464FEAD3
:10544000E47C04EB5C7C4FEAEC0CA4EBCC0CBCF1F0
:10545000000F02D04FF0010C01E04FF0000C63444C
:10546000224604EBD27C4FEA6C0C03FB0CF3DBB25C
:105470000093A7F12000C7B2002556E00C2C07D1FD
:1054800007EB47002B4901EB800010F8059013E073
:10549000102C05D1284800EB071010F805900BE000
:1054A000182C07D107EBC700244901EB800010F846
:1054B000059001E0BDE8F88F4FF0000A2FE009F0F9
:1054C000800030B11E48028831464046FBF7A2FFFB
:1054D00007E00A9828B91B48028831464046FBF786
:1054E00099FF4FEA49604FEA1069701C86B216486E
:1054F0004088B04200DCDDE7A6EB0B00A0420AD1F9
:105500005E4608F101001FFA80F80F480088404508
:1055100000DCCFE706E00AF1010000F0FF0ABAF173
:10552000080FCCDB00BF681CC5B200988542A5DB24
:1055300000BFBFE7ACA6000820AB000810B1000810
:105540002000002022000020D00100202DE9F84793
:1055500004460D4690469946DDE9096704F0FF0AC6
:1055600008EB04001FFA80F809EB05001FFA80F928
:1055700016E0444502DB5446A81985B24D4500DBD0
:1055800014E0002000903A78334629462046FFF781
:1055900049FF304606EBD07104EB61018CB27F1CF1
:1055A00038787E2802DC38782028E2DA00BFBDE8AF
:1055B000F8872DE9FF4F82B0064692461F46DDE987
:1055C0000F480020019000254DE0781B401EC1B21D
:1055D0000A20FFF78BFCBAFBF0F00A21B0FBF1F2D6
:1055E00001FB1209019850BB781EA84227DDB9F1D2
:1055F000000F22D108F0800078B108F00100A34626
:1056000004EBDB71491001FB0561009088B2234671
:1056100030220399FFF706FF0EE008F00100A346D1
:1056200004EBDB71491001FB0561009088B2234651
:1056300020220399FFF7F6FE13E00120019008F005
:105640000100A34604EBDB71491001FB05610090EA
:1056500088B209F13001CAB223460399FFF7E2FE8E
:1056600000BF681CC5B2BD42AFDB06B0BDE8F08F1D
:1056700001B5BDF800000090BDF8000001490880A8
:1056800008BD00008000006C01B5BDF8000000906E
:10569000BDF800000149088008BD00007E00006CD4
:1056A000024800890249088070470000D0010020AC
:1056B0007E00006C034A10804FF0D842A2F88010A0
:1056C000704700007E00006C00BFFEE72DE9F0414E
:1056D00002F01EFF06460EB100F076FA782003F0C5
:1056E000F3FD10B10220BDE8F081782002F0F6FD54
:1056F00008B10320F7E7642003F098FD08B1042007
:10570000F1E70E211E48FAF795FD03201C490870A9
:1057100001F01EFD08B10520E5E71A4C204602F015
:10572000DFFC0546E01C02F0DBFC45EAC00085B268
:10573000A01D02F0D5FC45EA801085B200BF2F46BF
:10574000384601F05FFF08B10620CCE740F2731045
:105750000B49C880C88801F0A3FB08B10720C2E745
:10576000642001F07FFE08B10820BCE7012003F0AF
:1057700059FC01200249487003F051FE0020B2E7B5
:10578000E00100202500002070B505460C46FBF71F
:105790002DFCD020FBF768FC2846FBF765FC204673
:1057A000FBF762FCFBF742FC70BD704770B500214F
:1057B00000230F22C4781CB3174C246804F4E0645F
:1057C000C4F5E064C4F30721C1F10404E3B20A4163
:1057D00044789C40E1B28478144021430C07210EA8
:1057E0000E4C05786155047804F01F050124AC4087
:1057F00005786D11AD0005F1E025C5F8004109E01F
:10580000047804F01F050124AC40054D067876119C
:1058100045F8264070BD00000CED00E000E400E01B
:1058200080E100E0014908627047000000000E427C
:105830007047000029B1064A12680243044B1A60FF
:1058400004E0034A12688243014B1A60704700006B
:105850003038024029B1064A12680243044B1A60EC
:1058600004E0034A12688243014B1A60704700004B
:105870003838024029B1064A12680243044B1A60C4
:1058800004E0034A12688243014B1A60704700002B
:10589000403802400149086070470000400E47420E
:1058A00070472DE9F0470546884616461C46FBF72B
:1058B0009DFB6906080EFBF7D7FB81464046FBF7C8
:1058C000D3FB8146FBF792FB012101EB4501C8B2F6
:1058D000FBF7CAFB8146002710E0701EB84205D1D5
:1058E000FBF744FB2070FBF71BFB05E0FBF73EFBDF
:1058F0002070FBF7EFFA641C781CC7B2B742ECDBF0
:10590000FBF794FB4846BDE8F0872DE9F0470546D4
:105910000E4617461C46FBF769FB6906080EFBF7A7
:10592000A3FB81463046FBF79FFB81464FF0000802
:1059300008E02078FBF798FB8146641C08F1010021
:1059400000F0FF08B845F4DBFBF770FB4846BDE804
:10595000F08700000CB500200190009034480068EA
:1059600040F480303249086000BF3148006800F4DC
:10597000003000900198401C0190009818B90198DF
:10598000B0F5A04FF1D12A48006800F4003010B102
:105990000120009001E0002000900098012846D1ED
:1059A00023484030006840F0805021494031086071
:1059B0002048006840F440401E4908601C480830F8
:1059C00000681B49083108600846006840F4004040
:1059D00008600846006840F4A05008601648091F97
:1059E0000860081F006840F08070091F086000BF51
:1059F0000F48006800F000700028F9D040F20570F0
:105A00000E4908600A480830006820F00300084981
:105A1000083108600846006840F00200086000BFD6
:105A200003480830006800F00C000828F8D10CBDCD
:105A3000003802400070004008544007003C02401B
:105A400030B50146481EB0F1807F01D3012030BD42
:105A5000481E4FF0E022506150170F22002807DA4D
:105A600013071D0E094B00F00F04241F1D5503E002
:105A700013071C0E064B1C5400BF00204FF0E02201
:105A80009061072010610020E1E7000018ED00E0C0
:105A900000E400E000B500F081F900F049F900BD34
:105AA00070B500200022022300240221274D2D681A
:105AB00005F00C0020B1042806D0082834D107E0F6
:105AC000234D244E356033E0234D224E35602FE0C8
:105AD0001E4D2D1F2D68C5F380541C4D2D1F2D68A4
